S0160000426F6F744C6F616465725F70726A2E7372656378
S113000000700020150500007D0500007D0500003E
S11300107D0500007D0500007D0500000000000056
S11300200000000000000000000000007D0500004A
S11300307D050000000000007D0500007D05000036
S11300407D0500007D0500007D0500007D050000A4
S11300507D0500007D0500007D0500007D05000094
S11300607D0500007D0500007D0500007D05000084
S11300707D0500007D0500007D0500007D05000074
S11300807D0500007D0500007D0500007D05000064
S11300907D0500007D0500007D0500007D05000054
S11300A07D0500007D0500007D0500007D05000044
S11300B07D0500007D0500007D0500007D05000034
S11300C07D050000950D00007D0500007D05000004
S11300D07D0500007D0500007D0500007D05000014
S11300E07D0500007D0500007D0500007D05000004
S11300F07D0500007D0500007D0500007D050000F4
S11301007D0500007D0500007D0500007D050000E3
S11301107D0500007D0500007D0500007D050000D3
S11301207D0500007D0500007D0500007D050000C3
S11301307D0500001D0800007D0500007D05000010
S11301407D0500007D0500007D0500007D050000A3
S11301507D0500007D0500007D0500007D05000093
S11301607D0500007D0500007D0500007D05000083
S11301707D0500007D0500007D0500007D05000073
S11303F07D0500007D0500007D050000FFFFFFFF77
S1130400FFFFFFFFFFFFFFFFFFFFFFFFFE7FFFFF79
S11304100348044B834202D0034B03B1184770478F
S11304206884FF1F6884FF1F000000000548064918
S11304300B1AD90F01EBA301491002D0034B03B1EE
S1130440184770476884FF1F6884FF1F000000007E
S113045010B5064C237843B9FFF7DAFF044B13B108
S11304600448AFF300800123237010BD0000002076
S1130470000000003422000008B5044B1BB10449FD
S11304800448AFF30080BDE80840CFE70000000057
S11304900400002034220000A3F5803A704700BF16
S11304A0174B002B08BF134B9D46FFF7F5FF0021A8
S11304B08B460F461348144A121A01F079FC0E4B6E
S11304C0002B00D098470D4B002B00D098470020FC
S11304D0002104000D000D48002802D00C4801F052
S11304E0DFFC01F041FC2000290001F0A9FB01F030
S11304F02BFC00BF0000080000000000000000000A
S1130500007000200000002048070020A11E000009
S1130510791E000072B64FF000014FF000024FF058
S113052000034FF000044FF000054FF000064FF0B9
S11305300007B846B946BA46BB46BC460A490B4A08
S1130540521A013A05DD0020042308601944043AD4
S1130550FBDA07488546074880470748804762B664
S1130560FFF79EFFFEE700000080FF1F00700020E1
S113057000700020B906000091050000FFF7FEBFDF
S1130580034613F8012B002AFBD1181A01387047CF
S113059080B48FB000AF394B3B63394B3B62394B6E
S11305A07B61394BFB62394BFB61394B3B61394B06
S11305B0BB62394BFB60394B7B62394BBB61394BB6
S11305C0BB6009E03B6A1A783B6B1A703B6B0133E2
S11305D03B633B6A01333B627A693B6A9A42F1D1DD
S11305E009E0FB691A78FB6A1A70FB6A0133FB6243
S11305F0FB690133FB613A69FB699A42F1D105E079
S1130600BB6A00221A70BB6A0133BB62FA68BB6A18
S11306109A42F5D109E0BB691A787B6A1A70BB6902
S11306200133BB617B6A01337B62BA68BB699A425E
S1130630F1D10023FB711C4A1C4B9A4216D00023B3
S11306407B630AE0194A7B6B52F8232016497B6BC3
S113065041F823207B6B01337B63154B9B087A6B3A
S11306609A42EFD3134B104A1A6002E0114B0F4A1F
S11306701A6000BF3C37BD4680BC70470080FF1F36
S113068060220000C82600006884FF1FC8260000FE
S1130690C8260000000000204807002000000020B9
S11306A0C8260000C826000000000000000000006A
S11306B00000000008ED00E080B400AF084B094AD8
S11306C05A60074B5B68064B42F220121A60044BD7
S11306D04FF6FF729A6000BFBD4680BC704700BFF2
S11306E00020054020C528D980B584B000AF7860CB
S11306F00B46FB70164B1B681B68002178689847F3
S11307000346FB7397F90F30002B07D1104B1B687E
S11307109B680021786898470346FB7397F90F306C
S1130720002B08D10A4B1B68DB68FA7811467868FD
S113073098470346FB7397F90F30002B01D1002330
S113074001E04FF0FF3318461037BD4680BD00BFAF
S11307500080FF1F80B584B000AF78600B46FB704B
S1130760154B1B681B680021786898470346FB7388
S113077097F90F30002B07D10F4B1B689B680121A1
S1130780786898470346FB7397F90F30002B06D11E
S1130790094B1B681B69FA7811467868984797F9E2
S11307A00F30002B01D1002301E04FF0FF33184636
S11307B01037BD4680BD00BF0080FF1F80B582B0EA
S11307C000AF7860044B1B689B697868984700BF4A
S11307D00837BD4680BD00BF0080FF1F80B582B0D2
S11307E000AF7860044B1B681B6A7868984700BFA9
S11307F00837BD4680BD00BF0080FF1F80B582B0B2
S113080000AF7860044B1B685B69786898470346BF
S113081018460837BD4680BD0080FF1F80B584B0F0
S113082000AF1C4BD3F8A030FB601A4AFB68C2F837
S1130830A03027E0FB6893FAA3F3B3FA83F3BB6019
S1130840154ABB68403352F82330002B12D0134AA8
S1130850BB68134440331B78FB710F4ABB684033B9
S113086052F82330BA6802F01F0242F04002F979CC
S1130870104698470122BB6802FA03F3DB43FA6887
S11308801340FB60FB68002BD4D100BF00BF1037BE
S1130890BD4680BD00B0044028040020A806002006
S11308A080B485B000AF0346FB710E4B1B889BB22E
S11308B001339BB2C3F30903FB810B4B1B889BB22F
S11308C0FA899A4209D0074B1B889BB21946074AFA
S11308D0FB795354034AFB89138000BF1437BD4688
S11308E080BC704720040020220400202000002047
S11308F080B483B000AF7860114B1B889AB2114B5F
S11309001B889BB29A4201D1002313E00C4B1B8835
S11309109BB21A460C4B9B5CDAB27B681A70084B8C
S11309201B889BB201339BB2C3F309039AB2044BF5
S11309301A80012318460C37BD4680BC704700BF9F
S113094022040020200400202000002080B485B070
S113095000AF0346FB710023FB73FB79022B08D025
S1130960022B03DC002B06D0012B06D0FC23FB73E7
S113097004E000BF02E000BF00E000BF97F90F30C1
S113098018461437BD4680BC7047000080B483B05D
S113099000AF78603A4A7B6813603A4BD3F800336F
S11309A003F00103002B0FD1364BD3F80033354A43
S11309B043F00103C2F8003300BF324BD3F80033D5
S11309C003F08073002BF8D02E4BD3F8043323F4B8
S11309D0E0632C4A43F48073C2F804332A4BD3F8FF
S11309E02C31294A43F08043C2F82C31264BD3F8EA
S11309F0AC31254A23F08043C2F8AC31224BD3F802
S1130A00AC3123F08E43204A43F08643C2F8AC3124
S1130A101E4B9B681D4A43F0020393601B4B9B686B
S1130A201A4A23F002039360194B9B6923F4E06391
S1130A30174A43F400739361154BDB6923F4E063B5
S1130A40134A43F40073D361114BDB6923F4E86365
S1130A500F4A43F41073D3610E4B0222C3F884216E
S1130A600C4B02225A600C4B00221A800B4B0022C2
S1130A701A80002318460C37BD4680BC704700BF5F
S1130A801C000020004006400050064000B0064014
S1130A9000B0044000E100E0200400202204002013
S1130AA080B400AF0E4B00221A600E4BD3F8AC3169
S1130AB00C4A23F08043C2F8AC310B4B0222C3F83A
S1130AC084200A4B9B68094A43F002039360074B56
S1130AD04FF440429A6200231846BD4680BC7047DA
S1130AE01C0000200050064000E100E000B0064079
S1130AF080B485B000AF786039600023FB737B68F5
S1130B00DBB2BB60BB68042B11D13B68002B06D061
S1130B10644B9B69634A43F40023936105E0614B92
S1130B209B69604A23F4002393610023B4E0BB680B
S1130B30052B1DD13B68002B0CD05A4B9B69594A9D
S1130B4043F480239361574B9B69564A43F4001343
S1130B5093610BE0534B9B69524A23F40013936156
S1130B60504B9B694F4A23F480239361002393E005
S1130B704C4B9B694B4A23F440239361BB68012B84
S1130B8022D1484B1A694749474B13400B613B68D4
S1130B90B3F5165F08D1434B1B69424A43F07063B7
S1130BA043F49C73136112E03B68B3F5E13F08D151
S1130BB03C4B1B693B4A43F0706343F01A031361D7
S1130BC005E06FF0010367E04FF0FF3364E07B68FA
S1130BD003F44053B3F5005F1CD0B3F5005F26D88F
S1130BE0002B03D0B3F5805F07D020E02D4B9B6929
S1130BF02C4A23F0020393611CE02A4B9B69294A87
S1130C0043F002039361274B9B69264A23F00103B7
S1130C1093610FE0234B9B69224A43F002039361E3
S1130C20204B9B691F4A43F00103936102E06FF07C
S1130C30030331E07B6803F4E063002B12D1194B0A
S1130C409B69184A23F400639361164B9B69154A08
S1130C5023F01003936100BF7B6803F44043002B2F
S1130C6007D002E06FF0020316E0B3F5804F07D01F
S1130C700DE00C4B1B690B4A23F40053136109E08C
S1130C80084B1B69074A43F40053136102E06FF0F9
S1130C90040301E097F90F3018461437BD4680BCB1
S1130CA0704700BF00B0064000E0FDE080B485B0AE
S1130CB000AF786039607B68002B02D03B68002B62
S1130CC002D16FF0040329E07B68FB60164B00221D
S1130CD01A60164B9B69154A43F40023936110E094
S1130CE000BF124B5B6903F40003002BF9D00E4BD9
S1130CF01B685A1C0C490A60FA6813441A780B4B97
S1130D00DA61094B1B683A689A42E9D800BF074B7D
S1130D105B6903F48003002BF9D0002318461437D1
S1130D20BD4680BC704700BF2404002000B00640CC
S1130D3080B584B000AF786039607B68002B02D046
S1130D403B68012B02D06FF004030EE007F10F03A0
S1130D501846FFF7CDFD0346002B02D16FF00103C7
S1130D6003E0FA7B7B681A70002318461037BD46EF
S1130D7080BD000080B400AF00BF054B5B6903F485
S1130D808003002BF9D000BF00BFBD4680BC704774
S1130D9000B0064080B582B000AF0F4B5B697B604A
S1130DA07B6803F40013002B06D00B4BDB69FB704C
S1130DB0FB781846FFF774FD7B6803F47023002B5F
S1130DC005D0054B5B69044A43F47023536100BFAB
S1130DD00837BD4680BD00BF00B0064080B487B070
S1130DE000AF786039607B685B093B617B6803F026
S1130DF01F03FB600023FB753B69042B02D8FB68CF
S1130E001F2B01D90123FB7519493B695A01FB6862
S1130E1013443A6841F82320164A17493B6951F8AC
S1130E20233052F82320134913483B6950F82330E8
S1130E3042F0804241F82320104A3B6952F82330A3
S1130E40FA6853F822200D493B6951F8233042F4E3
S1130E508071FA6843F82210FB7D002B02D04FF01A
S1130E60FF3300E0002318461C37BD4680BC7047A2
S1130E70280400200050064008220000E021000061
S1130E8080B487B000AF78600B46FB707B685B0969
S1130E903B617B6803F01F03FB600023FB753B6928
S1130EA0042B02D8FB681F2B01D90123FB75FB78A7
S1130EB0002B02D0012B12D022E0184A3B6952F8D1
S1130EC023305A690121FB6801FA03F3DB43184616
S1130ED012493B6951F8233002405A6112E00F4A2B
S1130EE03B6952F823305A690121FB6801FA03F384
S1130EF018460A493B6951F8233002435A6101E01C
S1130F000123FB75FB7D002B02D04FF0FF3300E083
S1130F10002318461C37BD4680BC7047F4210000EE
S1130F2080B487B000AF78600B46FB707B685B09C8
S1130F303B617B6803F01F03FB600023FB753B6987
S1130F40042B02D8FB681F2B01D90123FB75FB7806
S1130F50022B38D0022B57DC002B02D0012B11D0EE
S1130F6052E0304A3B6952F82330FA6853F82220A1
S1130F702C493B6951F8233022F00201FA6843F806
S1130F80221043E0274A3B6952F82330FA6853F8A9
S1130F90222024493B6951F8233042F00201FA68C7
S1130FA043F822101F4A3B6952F82330FA6853F879
S1130FB022201C493B6951F8233042F00101FA68B0
S1130FC043F8221022E0174A3B6952F82330FA68AA
S1130FD053F8222013493B6951F8233042F00201AF
S1130FE0FA6843F822100F4A3B6952F82330FA6832
S1130FF053F822200B493B6951F8233022F00101B8
S1131000FA6843F8221001E00123FB75FB7D002BF5
S113101002D04FF0FF3300E0002318461C37BD46D2
S113102080BC7047E021000080B485B000AF7860D8
S113103039607B685B09FB607B6803F01F03BB605E
S11310403B68002B09D10C4AFB6852F8233001217C
S1131050BA6801FA02F29A6008E0074AFB6852F89B
S113106023300121BA6801FA02F25A6000BF143732
S1131070BD4680BC704700BFF421000080B485B039
S113108000AF78607B685B09FB607B6803F01F033B
S1131090BB60074AFB6852F823300121BA6801FAA1
S11310A002F2DA6000BF1437BD4680BC704700BF4F
S11310B0F421000080B485B000AF78607B685B09E0
S11310C0FB607B6803F01F03BB60074AFB6852F8B0
S11310D023300121BA6801FA02F25A6000BF1437C2
S11310E0BD4680BC704700BFF421000080B485B0C9
S11310F000AF78607B685B09FB607B6803F01F03CB
S1131100BB60074AFB6852F823300121BA6801FA30
S113111002F29A6000BF1437BD4680BC704700BF1E
S1131120F421000080B485B000AF78607B685B096F
S1131130FB607B6803F01F03BB60074AFB6852F83F
S113114023301A69BB6822FA03F303F0010318463B
S11311501437BD4680BC7047F421000080B487B0CA
S113116000AF78600B46FB707B685B093B617B6872
S113117003F01F03FB600023FB753B69042B02D8BB
S1131180FB681F2B01D90123FB75584A3B691344A3
S113119093F90030DBB203F01F03554953483A6911
S11311A0024492F90020521152B21046012202FA6E
S11311B003F341F82030FB78002B10D14D4A3B69F2
S11311C052F82330FA6853F822204A493B6951F80F
S11311D0233022F47021FA6843F8221079E0FB7876
S11311E0012B24D1434A3B6952F823300121FA6888
S11311F001FA02F2C3F8A0203E4A3B6952F82330B8
S1131200FA6853F8223023F470223A493B6951F8C2
S1131210233042F41021FA6843F82210364A3B691D
S11312205B011A44FB68134401221A7051E0FB78F5
S1131230022B24D12F4A3B6952F823300121FA684A
S113124001FA02F2C3F8A0202A4A3B6952F823307B
S1131250FA6853F8223023F4702226493B6951F886
S1131260233042F42021FA6843F82210224A3B69D1
S11312705B011A44FB68134402221A7029E0FB78CC
S1131280032B24D11B4A3B6952F823300121FA680D
S113129001FA02F2C3F8A020164A3B6952F823303F
S11312A0FA6853F8223023F4702212493B6951F84A
S11312B0233042F43021FA6843F822100E4A3B6985
S11312C05B011A44FB68134403221A7001E00123F2
S11312D0FB75FB7D002B02D04FF0FF3300E00023B1
S11312E018461C37BD4680BC704700BF1C80FF1FDA
S11312F000E100E0E0210000A806002080B483B0F3
S113130000AFEFF310837B6072B67B6818460C372E
S1131310BD4680BC704780B483B000AF78607B6802
S113132083F3108800BF0C37BD4680BC70470000B3
S113133080B483B000AF78607B680C4A934205D9CF
S11313407B68B3F1005F01D801230AE07B68B3F145
S1131350005F05D37B68064A934201D8012300E06D
S1131360002318460C37BD4680BC7047FF7FFF1F23
S11313700070002080B584B000AF78607B681B6883
S1131380FB607B6804331B68BB60F868FFF7D0FF21
S11313900346002B01D1002311E0BA687B689A420E
S11313A003D3BB68B3F5002F01D3002307E0BB6868
S11313B003F00103002B01D1002300E001231846B0
S11313C01037BD4680BD80B584B000AF78607B68BF
S11313D0FB600CE0F86800F03DF80346002B02D0F7
S11313E04FF0FF3308E0FB6803F58053FB60FB68B4
S11313F0B3F5002FEED3002318461037BD4680BD49
S113140080B400AF00BF054B1B78DBB25BB2002B8E
S1131410F9DA00BF00BFBD4680BC7047000002403F
S113142080B400AF034B70221A7000BFBD4680BC6D
S1131430704700BF0000024080B400AF044B1B782B
S1131440DBB203F070031846BD4680BC704700BF92
S11314500000024080B584B000AF7860FFF74EFF13
S1131460F860FFF7CDFFFFF7DBFF134B0922DA71BA
S11314707B681A0C104BD2B29A717B681A0A0E4B15
S1131480D2B25A710C4B7A68D2B21A710A4B8022CA
S11314901A70FFF7B5FFFFF7CFFFB860F868FFF7E2
S11314A03AFFBB68002B02D04FF0FF3300E000236B
S11314B018461037BD4680BD0000024080B584B098
S11314C000AF786039607B6803F00703002B02D01B
S11314D06FF0010349E0FFF711FFF860FFF790FF99
S11314E0FFF79EFF234B0722DA717B681A0C214B0E
S11314F0D2B29A717B681A0A1E4BD2B25A711D4B32
S11315007A68D2B21A711B4A3B681B781372194A63
S11315103B685B785372174A3B689B789372154A11
S11315203B68DB78D372134A3B681B791373114A07
S11315303B685B7953730F4A3B689B7993730D4AFD
S11315403B68DB79D3730B4B80221A70FFF758FF8B
S1131550FFF772FFB860F868FFF7DDFEBB68002B89
S113156002D04FF0FF3300E0002318461037BD4689
S113157080BD00BF0000024080B58AB000AFF860B3
S1131580B9607A6000237B623FE0FA687B6A1344A7
S113159023F00703FB61FA6907F11003106851682F
S11315A003C300233B621CE0FA693B6A1344BB613A
S11315B0BA69FB689A4211D3FA687B681344BA6922
S11315C09A420BD2BA69FB68D31ABA6813441978E1
S11315D007F110023B6A13440A461A703B6A01334E
S11315E03B623B6A072BDFD90C4B30221A7007F1A0
S11315F010031946F869FFF761FF0346002B01D079
S1131600012307E07B6A08337B627A6A7B689A422B
S1131610BBD3002318462837BD4680BD00000240D6
S113162080B483B000AF0346FB71FB792F2B06D93E
S1131630FB79392B03D8FB79303BDBB214E0FB791F
S1131640402B06D9FB79462B03D8FB79373BDBB219
S11316500AE0FB79602B06D9FB79662B03D8FB796A
S1131660573BDBB200E0002318460C37BD4680BC74
S1131670704780B584B000AF78607B681B781846EB
S1131680FFF7CEFF0346FB737B6801331B781846D4
S1131690FFF7C6FF0346BB73FB7B1B01FB73FA7B9F
S11316A0BB7B13437B737B7B18461037BD4680BDE1
S11316B080B588B000AF786039607B681B78532BA5
S11316C002D04FF0FF33A6E07B6801331B78303B38
S11316D0DAB23B6883F808217B6802331846FFF7C7
S11316E0C8FF0346FB720423FB61FB7ABB61002342
S11316F07B613B6893F80831092B2AD801A252F880
S113170023F000BF2D170000311700003717000029
S11317103D17000053170000431700005317000043
S1131720471700004B1700004F170000022372E018
S113173002237B6110E003237B610DE004237B61C2
S11317400AE0022367E0012365E0012363E001234B
S113175061E06FF001035EE03B6800221A60002341
S11317603B6118E07A68FB6913441846FFF781FF70
S113177003463B72FB690233FB613B7ABA6913444B
S1131780BB613B681B681A023B7A1A433B681A60C8
S11317903B6901333B613A697B699A42E2D3FA7A45
S11317A07B69D31A5A1E3B68C3F804210023FB60EB
S11317B017E07A68FB6913441846FFF75AFF03469B
S11317C07B72FB690233FB617B7ABA691344BB61A8
S11317D03A68FB68134404337A7A1A70FB6801335D
S11317E0FB603B68D3F80431FA689A42E1D37A6823
S11317F0FB6913441846FFF73CFF0346BB72BB6901
S1131800DB43DBB2BB61BB7ABA699A4202D06FF0A8
S1131810020300E0002318462037BD4680BD00BF08
S113182080B584B000AF786039600023FB607B68CA
S1131830002B02D03B68002B02D14FF0FF332AE08B
S113184007F10B0301211846FFF772FA0346002B38
S11318501DD1FB7A0D2B1CD0FB7A0A2B06D1FB6819
S11318607A68134400221A70FB6814E03B685A1E1D
S1131870FB689A4202D86FF001030CE0FB685A1C23
S1131880FA601A467B681344FA7A1A70D8E700BFE4
S1131890D6E700BFD4E718461037BD4680BD80B4F4
S11318A000AFBFF34F8F00BFBD4680BC704780B40C
S11318B000AFBFF36F8F00BFBD4680BC704780B4DC
S11318C083B000AF78607B6883F3088800BF0C376F
S11318D0BD4680BC7047000080B586B000AF78601C
S11318E07B681B683B617B6804331B68FB6072B6D2
S11318F04FF0E0234FF02062C3F8042D00237B61F6
S113190010E0164A7B6920334FF0FF3142F8231070
S1131910124A7B6960334FF0FF3142F823107B6930
S113192001337B617B69072BEBDD4FF0000080F313
S11319301488FFF7BCFF4FF0E0227B68C2F8083D33
S1131940FFF7ADFFFFF7B3FF3869FFF7B8FFFFF705
S1131950A6FFFFF7ACFFFB689847FEE700E100E055
S113196090B583B000AF7860064B1B681C6978683B
S1131970FEF706FE034619467868A04700BF0C37F9
S1131980BD4690BD4880FF1F80B586B000AF78602B
S113199007237B6110E07B6803F00F030D4AD15CE1
S11319A007F108027B6913440A461A707B681B0915
S11319B07B607B69013B7B617B69002BEBDA002355
S11319C03B7407F108031846FFF7CAFF00BF183736
S11319D0BD4680BD1C22000080B483B000AF786097
S11319E002E07B68013B7B607B68002BF9D100BF80
S11319F000BF0C37BD4680BC704780B500AF0121E5
S1131A006F20FEF7A7FE02214C20FEF76DFE00BFFB
S1131A1080BD000080B500AF0C4B1B685B680020E4
S1131A2098470A4B1B68DB684FF4E1310120984763
S1131A30064B1B68DB68012104209847034B1B6895
S1131A40DB6801210520984700BF80BD4880FF1F47
S1131A5080B5ADF5087D00AF024607F50873A3F223
S1131A6019231A7007F50873A3F219231B7883F05E
S1131A700103DBB2002B06D05B48FFF771FF5B4824
S1131A80FFF76EFF16E05A48FFF76AFF5948FFF761
S1131A9067FF4FF42040FFF796FC0346002B03D06A
S1131AA05548FFF75DFF9AE05448FFF759FF4F4848
S1131AB0FFF756FF07F58C734FF480711846FFF754
S1131AC0AFFEC7F81C02D7F81C32002B03DA4C48CF
S1131AD0FFF746FF83E0D7F81C32002B5ED007F1F6
S1131AE00C0207F58C7311461846FFF7E1FDC7F8A1
S1131AF01802D7F81832022B52D0D7F81832012B1B
S1131B0050D0D7F81832002B15DAD7F8183213F161
S1131B10030F03D13B48FFF723FF60E0D7F81832E7
S1131B20B3F1FF3F03D13848FFF71AFF57E03748B6
S1131B30FFF716FF53E007F50873A3F505731B6859
S1131B40B3F5204F0ED307F50873A3F505731A6890
S1131B5007F50873A3F50573D3F804311344B3F5FB
S1131B60002F03D92A48FFF7FBFE1AE007F5087394
S1131B70A3F50573186807F50873A3F50573D3F87F
S1131B80042107F10C0304331946FFF7F5FC03465F
S1131B90002B8FD01F48FFF7E3FE20E000BF89E74A
S1131BA000BF87E700BF1C48FFF7DAFE4FF4204070
S1131BB0FFF7E0FB0346012B0ED11848FFF7D0FED8
S1131BC06F20FEF70BFE1648FFF7CAFE0748FFF723
S1131BD0C7FEFFF7CFF8FEE71248FFF7C1FE07F58F
S1131BE00877BD4680BD00BF141F0000301F0000F1
S1131BF06C1F0000941F0000B81F0000C81F0000E5
S1131C00E81F00000020000014200000282000002D
S1131C103C2000004C2000005C2000006C200000F0
S1131C20782000009820000080B500AF6F20FEF7F8
S1131C30C5FD0248FFF7D0FEF8E700BF400D0300E2
S1131C4080B584B000AFFFF7D8FEFFF7E3FE31485C
S1131C50FFF786FE4FF420431B68FB604AF204033F
S1131C601B68BB602C48FFF77BFE0020FFF78CFE4F
S1131C702A48FFF775FE4FF42040FFF785FE2848F9
S1131C80FFF76EFEF868FFF77FFE2648FFF768FE51
S1131C90B868FFF779FE2448FFF762FE4C20FEF790
S1131CA0ADFD78602148FFF75BFE7B68012B03D113
S1131CB01F48FFF755FE02E01E48FFF751FE1A4881
S1131CC0FFF74EFE7B68012B06D11B48FFF748FE49
S1131CD00120FFF7BDFEFEE74FF42040FFF74AFB6B
S1131CE00346002B09D01548FFF73AFE1448FFF7C6
S1131CF037FE4FF42040FFF7EFFD1248FFF730FEA8
S1131D000020FFF7A5FEFFF78FFF002318461037CA
S1131D10BD4680BDB8200000F82000000C21000062
S1131D202421000040210000582100005C21000013
S1131D30682100006C210000702100009021000047
S1131D40301F0000B421000008B50021044600F053
S1131D5041F8044B1868C36B03B19847204600F060
S1131D60D7F800BF3022000070B50D4D0D4C641B38
S1131D70A4100026A64209D10B4D0C4C00F05AFACF
S1131D80641BA4100026A64205D170BD55F8043B7F
S1131D9098470136EEE755F8043B98470136F2E7D9
S1131DA05422000054220000542200005C2200004F
S1131DB002440346934200D1704703F8011BF9E73C
S1131DC0024B13B1024800F06BB8704700000000EA
S1131DD0791E00002DE9F74F264B1B680193074637
S1131DE00E464FF0000A019BD3F8485155B16C6878
S1131DF004F1FF38013405EB84044FF00109B8F114
S1131E00000F02DA03B0BDE8F08F3EB1D4F8002130
S1131E10B24203D008F1FF38043CF0E76968226855
S1131E20013941450CBFC5F80480C4F800A0002A5C
S1131E30F0D0D5F88811D5F804B009FA08FC1CEAEA
S1131E40010F09D190476968019B5945D3F848218E
S1131E50C9D19542DED0C6E7D5F88C01D4F88010FC
S1131E601CEA000F02D138469047ECE70846904739
S1131E70E9E700BF3022000038B5074D074C641B6A
S1131E80A4101CB9BDE8384000F0DAB9013C55F89B
S1131E9024309847F5E700BF5C2200006022000070
S1131EA0002301461A46184600F000B8F0B5174C56
S1131EB02568D5F848411CB905F5A674C5F848410C
S1131EC065681F2D1EDCB0B104EB85070228C7F836
S1131ED08820D4F888614FF0010202FA05F246EA3C
S1131EE00206C4F88861C7F8083102BFD4F88C31FF
S1131EF01343C4F88C316B1C0235636044F825101D
S1131F000020F0BD4FF0FF30FBE700BF302200009F
S1131F10FEE70000526561647920746F2072656386
S1131F2065697665206669726D776172650D0A0070
S1131F302D2D2D2D2D2D2D2D2D2D2D2D2D2D2D2DCD
S1131F402D2D2D2D2D2D2D2D2D2D2D2D2D2D2D2DBD
S1131F502D2D2D2D2D2D2D2D2D2D2D2D2D2D2D2DAD
S1131F602D2D2D2D2D2D2D2D0D0A00005265616472
S1131F707920746F206572617365204170706C699B
S1131F80636174696F6E2073656374696F6E0D0AA3
S1131F900000000045726173696E67204170706CC7
S1131FA069636174696F6E2073656374696F6E2E03
S1131FB02E2E0D0A000000004572617365206572C3
S1131FC0726F720D0A000000457261736520646FC0
S1131FD06E653A20476F20746F204C697374656E88
S1131FE0206D6F64650D0A0055415254207265637B
S1131FF065697665206572726F722E0D0A000000A5
S1132000436865636B73756D206572726F722E0D14
S11320100A0000004E6F74205352454320666F72CD
S11320206D61742E0D0A0000556E737570706F72B9
S113203074656420747970652E00000041646472D4
S1132040657373206572726F720D0A00466C61735A
S113205068206572726F720D0A0000005265636534
S113206069766520646F6E652E0D0A004150505FDD
S113207056414C49440D0A00507265737320524511
S113208053455420425554544F4E20746F2073745A
S11320906172740D0A0000004552524F523A2041B9
S11320A070706C69636174696F6E20696E76616CBF
S11320B069640D0A000000000D0A2D2D2D2D2D2D13
S11320C02D2D2D2D2D2D2D2D2D2D2D2D2053333218
S11320D04B31343420424F4F544C4F4144455220ED
S11320E02D2D2D2D2D2D2D2D2D2D2D2D2D2D2D2D1C
S11320F02D2D0D0A00000000426F6F746C6F616437
S113210065722066726F6D20307800000D0A417090
S1132110706C69636174696F6E2066726F6D2030D4
S1132120780000000D0A4D61696E20537461636B81
S113213020706F696E746572203D20307800000055
S11321400D0A52657365742068616E646C65722053
S11321503D203078000000000D0A0000426F6F74CB
S11321604D6F6465203D20004F4646004F4E0000F1
S1132170427574746F6E20707265737365643A206F
S1132180676F20746F20426F6F740D0A00000000A7
S11321904170702076616C69643A206A756D7020B4
S11321A0696E746F206170706C69636174696F6EBD
S11321B00D0A00004E6F2076616C696420617070B6
S11321C06C69636174696F6E3A20676F746F204C39
S11321D0697374656E206D6F64650D0A00000000FC
S11321E00090044000A0044000B0044000C004403B
S11321F000D0044000F00F4040F00F4080F00F404A
S1132200C0F00F4000F10F40490000004A000000F8
S11322104B0000004C0000004D0000003031323310
S113222034353637383941424344454600000000CE
S11322305080FF1FF8B500BFF8BC08BC9E4670472D
S10F2240F8B500BFF8BC08BC9E4670470F
S10B224C4CE2FF7F01000000D9
S10B2254C11D00007904000023
S107225C5104000025
S11322602480FF1F4D0900008D090000A10A000011
S1132270F10A0000AD0C0000310D00003B3C3D3E76
S11322803F000000DD0D00005D110000810E000024
S1132290210F000029100000251100007D1000000E
S11322A0B5100000ED1000000480FF1F00000000C6
S11322B0000000003C83FF1FA083FF1F0484FF1F56
S11322C0000000000000000000000000000000000A
S11322D000000000000000000000000000000000FA
S11322E000000000000000000000000000000000EA
S11322F000000000000000000000000000000000DA
S113230000000000000000000000000000000000C9
S113231000000000000000000000000000000000B9
S113232000000000000000000000000000000000A9
S11323300000000000000000000000000000000099
S11323400000000000000000000000000000000089
S11323500000000000000000010000000000000078
S11323600E33CDAB34126DE6ECDE05000B0000003D
S11323700000000000000000000000000000000059
S11323800000000000000000000000000000000049
S11323900000000000000000000000000000000039
S11323A00000000000000000000000000000000029
S9030515E2
