:1000000000700020250600008D0600008D0600000F
:100010008D0600008D0600008D0600000000000027
:100020000000000000000000000000008D0600003D
:100030008D060000000000008D0600008D06000007
:100040008D0600008D0600008D0600008D06000064
:100050008D0600008D0600008D0600008D06000054
:100060008D0600008D0600008D0600008D06000044
:100070008D0600008D0600008D0600008D06000034
:100080008D0600008D0600008D0600008D06000024
:100090008D0600008D0600008D0600008D06000014
:1000A0008D0600008D0600008D0600008D06000004
:1000B0008D0600008D0600008D0600008D060000F4
:1000C0008D060000E12000008D0600008D06000076
:1000D0008D0600008D0600008D0600008D060000D4
:1000E0008D0600008D0600008D0600008D060000C4
:1000F0008D0600008D0600008D0600008D060000B4
:100100008D0600008D0600008D0600008D060000A3
:100110008D0600008D0600008D0600008D06000093
:100120008D0600008D0600008D0600008D06000083
:100130008D060000BD1900008D0600008D06000030
:100140008D0600008D0600008D0600008D06000063
:100150008D0600008D0600008D0600008D06000053
:100160008D0600008D0600008D0600008D06000043
:100170008D0600008D0600008D0600008D06000033
:1003F0008D0600008D0600008D060000FFFFFFFF48
:10040000FFFFFFFFFFFFFFFFFFFFFFFFFE7FFFFF7D
:1004100018009FE518309FE5000053E11EFF2F01F3
:1004200010309FE5000053E31EFF2F0113FF2FE163
:100430007084FF1F7084FF1F0000000024009FE5F0
:1004400024109FE5003041E0A31FA0E1431181E0AB
:10045000C110B0E11EFF2F0110309FE5000053E3F3
:100460001EFF2F0113FF2FE17084FF1F7084FF1FF9
:100470000000000010402DE92C409FE50030D4E53D
:10048000000053E30600001AE0FFFFEB1C309FE57D
:10049000000053E318009F150000A0110130A0E3F5
:1004A0000030C4E51040BDE81EFF2FE10000002031
:1004B00000000000DC2E000020309FE5000053E328
:1004C0000500000A10402DE914109FE514009FE577
:1004D0000000A0E11040BDE8D7FFFFEAD6FFFFEA29
:1004E0000000000004000020DC2E000000400FE1AE
:1004F0000F0014E31C00000A0D30A0E1D110A0E3AE
:1005000001F021E103D0A0E101AA4DE20A30A0E10F
:10051000D710A0E301F021E103D0A0E1013A43E2CA
:10052000DB10A0E301F021E103D0A0E1013A43E2B6
:10053000D210A0E301F021E103D0A0E1023A43E2AE
:10054000D310A0E301F021E103D0A0E1023943E29E
:10055000FF30C3E3FF3CC3E3DF10A0E301F021E180
:1005600003D0A0E1C04084E304F021E101A843E20C
:100570001EFF2FE194309FE5000053E380309F057C
:1005800003D0A0E1D8FFFFEB0010B0E301B0A0E181
:100590000170A0E178009FE578209FE5002052E0FF
:1005A000F70800EB5C309FE5000053E30100000A10
:1005B0000FE0A0E103F0A0E14C309FE5000053E321
:1005C0000100000A0FE0A0E103F0A0E10000B0E3A9
:1005D0000010B0E30040B0E10150B0E138009FE509
:1005E000000050E30100000A30009FE5460900EBDF
:1005F000C30800EB0400B0E10510B0E1420400FACA
:10060000B20800EB0000080000000000000000003D
:1006100000700020000000204C0700200C2B000080
:10062000C82A000072B64FF000014FF000024FF0F0
:1006300000034FF000044FF000054FF000064FF0AC
:100640000007B846B946BA46BB46BC460A490B4AFB
:10065000521A013A05DD0020042308601944043AC7
:10066000FBDA07488546074880470748804762B657
:10067000FFF780FFFEE700000080FF1F00700020F2
:10068000007000207127000049260000FFF7FEBF20
:1006900070402DE9FFC0A0E307CC8CE3214A1CE0A9
:1006A000235A1C100C0034110C0035117500000B7E
:1006B000054084E0036021E08C1AC1E18C3AC3E17B
:1006C000015690E103569211011681E3013683E34E
:1006D0001D00000A90C28EE00050A0E391E2A5E068
:1006E000022106E290E3A5E00060A0E39153A6E0BA
:1006F00000003CE301E08E13FF4044E2020C56E3AD
:10070000034CC4E20200002A8EE0B0E10550B5E0DF
:100710000660A6E0861582E1A51A81E18505A0E1C3
:10072000AE0A80E18EE5A0E1FDC054E2070C5C83D7
:100730001100008A02015EE3A0E0B0010000B0E217
:10074000041AA1E07040BDE81EFF2FE1026106E23D
:10075000011086E1020080E1031021E0AC4054E08A
:100760000C5074C0041A81C17040BDC81EFF2FC157
:10077000011681E300E0A0E3014054E25D0000CAFD
:10078000360074E30000A0D3021101D27040BDD83E
:100790001EFF2FD1004064E2204054E21A0000AA5C
:1007A0000C4094E20C0000CA144084E2205064E241
:1007B0001035A0E13004A0E1110580E1022101E241
:1007C0000211C1E3A30F90E03114A2E083E09EE1A7
:1007D000A30FC0017040BDE81EFF2FE10C4064E292
:1007E000205064E21034A0E13005A0E1110480E162
:1007F000021101E2A30F90E00010A1E283E09EE16C
:10080000A30FC0017040BDE81EFF2FE1205064E23D
:1008100010E58EE13034A0E1113583E13104A0E12F
:10082000021101E23104C0E1A30F80E083E09EE108
:10083000A30FC0017040BDE81EFF2FE1000034E3AC
:100840000800001A026101E28000B0E10110A1E09D
:10085000010611E301404402FAFFFF0A061081E19C
:10086000000035E31EFF2F11026103E28220B0E198
:100870000330A3E0010613E301504502FAFFFF0A2B
:10088000063083E11EFF2FE10C0034E1235A0CE017
:100890000C0035110700000A816090E1836092111D
:1008A000E5FFFF1A031021E0021101E20000A0E3BE
:1008B0007040BDE81EFF2FE1816090E10200A001C1
:1008C0000310A001836092111000000A0C0034E1B3
:1008D0000100001A016690E10C00001A0C0035E1DD
:1008E0000300001A036692E10200A0110310A01198
:1008F0000600001A031021E0021101E27F1481E3D7
:100900000F1681E30000A0E37040BDE81EFF2FE159
:100910007F1481E33E1781E37040BDE81EFF2FE1A5
:10092000021121E2000000EA023123E230402DE909
:100930008140A0E18350A0E1050034E102003001D4
:1009400000C0941102C09511C4CAF011C5CAF011BB
:100950008C00000AA44AA0E1A55A74E0005065B2D8
:10096000060000DA054084E0022020E0033021E0A8
:10097000000022E0011023E0022020E0033021E00B
:10098000360055E33040BD881EFF2F81020111E380
:100990000116A0E101C6A0E321168CE10100000AC6
:1009A000000070E20010E1E2020113E30336A0E16F
:1009B00023368CE10100000A002072E20030E3E2FD
:1009C000050034E16900000A014044E220E075E2DC
:1009D000050000BA12CEA0E1320590E00010A1E2BD
:1009E000130E90E05315B1E0060000EA205045E2F6
:1009F00020E08EE2010052E313CEA0E102C08C237E
:100A0000530590E0C31FB1E0025101E20200005A19
:100A100000C07CE20000F0E20010E1E2010651E3D8
:100A20000F00003A020651E30600003AA110B0E1BF
:100A30006000B0E16CC0A0E1014084E2842AA0E142
:100A4000010572E36B00002A02015CE3A0C0B00163
:100A50000000B0E2041AA1E0051081E13040BDE8D9
:100A60001EFF2FE18CC0B0E10000B0E00110A1E05A
:100A7000014054E201065123F2FFFF2A000031E356
:100A80001430A0133430A0030010A0010000A00314
:100A90000120A0E1010852E32228A02110304322C6
:100AA000010C52E32224A02108304322100052E31B
:100AB0002222A02104304322040052E302304322C8
:100AC000A2304330A23143E0202053E2070000AAC5
:100AD0000C2092E2040000DA14C082E20C2062E2F0
:100AE000110CA0E13112A0E1040000EA142082E21E
:100AF00020C062D21112A0E1301C81D11002A0D11D
:100B0000034054E0041A81A0051081A13040BDA823
:100B10001EFF2FA10440E0E11F4054E20F0000AA95
:100B20000C4094E2060000CA144084E2202064E2F3
:100B30003004A0E1110280E1311485E13040BDE8CC
:100B40001EFF2FE10C4064E2202064E23002A0E1AD
:100B5000110480E10510A0E13040BDE81EFF2FE147
:100B60003104A0E10510A0E13040BDE81EFF2FE1F7
:100B7000000034E3013623E2011621020140840221
:100B8000015045128FFFFFEAC4CAF0E1C5CAF01157
:100B90001D00000A050034E1020030010400000AD3
:100BA00000C094E10310A0010200A0013040BDE8A4
:100BB0001EFF2FE1030031E10010A0130000A0137D
:100BC0003040BD181EFF2F11A4CAB0E10400001A66
:100BD0008000B0E10110B1E0021181233040BDE896
:100BE0001EFF2FE1014594E2011681323040BD38ED
:100BF0001EFF2F31025101E27F1485E30F1681E3BE
:100C00000000A0E33040BDE81EFF2FE1C4CAF0E1C0
:100C10000310A0110200A011C5CAF0010130A011FB
:100C20000020A011014690E103569201030031011A
:100C3000021781133040BDE81EFF2FE1000030E3B2
:100C40000010A0031EFF2F0130402DE9014BA0E34F
:100C5000324084E20050A0E30010A0E386FFFFEAE8
:100C6000000030E30010A0031EFF2F0130402DE9EB
:100C7000014BA0E3324084E2025110E200006042E6
:100C80000010A0E37CFFFFEA8020B0E1C211A0E1E8
:100C90006110A0E1020EA0E1FF341212FF04331331
:100CA0000E1321121EFF2F11FF24D2E31EFF2F016E
:100CB000FF0433E3021781031EFF2F0130402DE9AB
:100CC0000E4DA0E3025101E20211C1E36AFFFFEA07
:100CD000012090E11EFF2F0130402DE90050A0E3DC
:100CE000060000EA012090E11EFF2F0130402DE9AF
:100CF000025111E20100005A000070E20010E1E22E
:100D0000014BA0E3324084E221CBB0E142FFFF0A75
:100D10000320A0E3ACC1B0E103208212ACC1B0E17A
:100D200003208212AC2182E0203062E210C3A0E1F5
:100D30003002A0E1110380E13112A0E1024084E021
:100D400035FFFFEA8120B0E10A00002A022692E284
:100D50000A00002A0700005A3E3EE0E3C22A53E0A0
:100D60000800004A8135A0E1023183E3A03A83E123
:100D70003302A0E11EFF2FE10000A0E31EFF2FE1E0
:100D8000010690E10100001A0000E0E31EFF2FE1E0
:100D90000000A0E31EFF2FE10023C25C0133002A04
:100DA000FBD1581E704780B400AFBFF34F8F00BF18
:100DB000BD4680BC704780B400AFBFF36F8F00BFEB
:100DC000BD4680BC704780B483B000AF78607B685C
:100DD00083F3088800BF0C37BD4680BC7047000015
:100DE00080B586B000AF78607B681B683B617B682C
:100DF00004331B68FB6072B64FF0E0234FF02062B3
:100E0000C3F8042D00237B6110E0164A7B69203370
:100E10004FF0FF3142F82310124A7B6960334FF0E4
:100E2000FF3142F823107B6901337B617B69072B1B
:100E3000EBDD4FF0000080F31488FFF7BCFF4FF0AC
:100E4000E0227B68C2F8083DFFF7ADFFFFF7B3FF74
:100E50003869FFF7B8FFFFF7A6FFFFF7ACFFFB68A5
:100E60009847FEE700E100E080B483B000AFEFF305
:100E700010837B6072B67B6818460C37BD4680BC19
:100E8000704780B483B000AF78607B6883F31088CC
:100E900000BF0C37BD4680BC7047000080B483B0F3
:100EA00000AF78607B680C4A934205D97B68B3F148
:100EB000005F01D801230AE07B68B3F1005F05D32E
:100EC0007B68064A934201D8012300E000231846BC
:100ED0000C37BD4680BC7047FF7FFF1F00700020AD
:100EE00080B483B000AF78607B68B3F5002F34BF67
:100EF00001230023DBB218460C37BD4680BC704787
:100F000080B584B000AF78607B681B68FB607B684D
:100F100004331B68BB60F868FFF7C0FF0346002B73
:100F200001D1002311E0BA687B689A4203D3BB6801
:100F3000B3F5002F01D3002307E0BB6803F00103E2
:100F4000002B01D1002300E0012318461037BD46D5
:100F500080BD80B584B000AF78607B68FB600CE03A
:100F6000F86800F03DF80346002B02D04FF0FF3345
:100F700008E0FB6803F58053FB60FB68B3F5002FC6
:100F8000EED3002318461037BD4680BD80B400AFB5
:100F900000BF054B1B78DBB25BB2002BF9DA00BF58
:100FA00000BFBD4680BC70470000024080B400AF67
:100FB000034B70221A7000BFBD4680BC704700BF53
:100FC0000000024080B400AF044B1B78DBB203F09A
:100FD00070031846BD4680BC704700BF0000024049
:100FE00080B584B000AF7860FFF73EFFF860FFF790
:100FF000CDFFFFF7DBFF134B0922DA717B681A0C78
:10100000104BD2B29A717B681A0A0E4BD2B25A7147
:101010000C4B7A68D2B21A710A4B80221A70FFF711
:10102000B5FFFFF7CFFFB860F868FFF72AFFBB688E
:10103000002B02D04FF0FF3300E00023184610379A
:10104000BD4680BD0000024080B584B000AF78602E
:1010500039607B6803F00703002B02D06FF00103B7
:1010600049E0FFF701FFF860FFF790FFFFF79EFFF1
:10107000234B0722DA717B681A0C214BD2B29A718A
:101080007B681A0A1E4BD2B25A711D4B7A68D2B2D3
:101090001A711B4A3B681B781372194A3B685B78CC
:1010A0005372174A3B689B789372154A3B68DB780A
:1010B000D372134A3B681B791373114A3B685B79FF
:1010C00053730F4A3B689B7993730D4A3B68DB79F6
:1010D000D3730B4B80221A70FFF758FFFFF772FF94
:1010E000B860F868FFF7CDFEBB68002B02D04FF068
:1010F000FF3300E0002318461037BD4680BD00BF17
:101100000000024080B58AB000AFF860B9607A6034
:1011100000237B623FE0FA687B6A134423F00703F5
:10112000FB61FA6907F110031068516803C30023DB
:101130003B621CE0FA693B6A1344BB61BA69FB6815
:101140009A4211D3FA687B681344BA699A420BD267
:10115000BA69FB68D31ABA681344197807F1100208
:101160003B6A13440A461A703B6A01333B623B6A8E
:10117000072BDFD90C4B30221A7007F110031946E8
:10118000F869FFF761FF0346002B01D0012307E058
:101190007B6A08337B627A6A7B689A42BBD30023FE
:1011A00018462837BD4680BD0000024080B483B099
:1011B00000AF0346FB71FB792F2B06D9FB79392B46
:1011C00003D8FB79303BDBB214E0FB79402B06D926
:1011D000FB79462B03D8FB79373BDBB20AE0FB797E
:1011E000602B06D9FB79662B03D8FB79573BDBB222
:1011F00000E0002318460C37BD4680BC704780B520
:1012000084B000AF78607B681B781846FFF7CEFF8C
:101210000346FB737B6801331B781846FFF7C6FF54
:101220000346BB73FB7B1B01FB73FA7BBB7B134346
:101230007B737B7B18461037BD4680BD80B588B078
:1012400000AF786039607B681B78532B02D04FF079
:10125000FF33A6E07B6801331B78303BDAB23B6892
:1012600083F808217B6802331846FFF7C8FF03465E
:10127000FB720423FB61FB7ABB6100237B613B684B
:1012800093F80831092B2AD801A252F823F000BFA5
:10129000B9120000BD120000C3120000C912000004
:1012A000DF120000CF120000DF120000D312000096
:1012B000D7120000DB120000022372E002237B61E0
:1012C00010E003237B610DE004237B610AE002232D
:1012D00067E0012365E0012363E0012361E06FF033
:1012E00001035EE03B6800221A6000233B6118E0C6
:1012F0007A68FB6913441846FFF781FF03463B7287
:10130000FB690233FB613B7ABA691344BB613B68FA
:101310001B681A023B7A1A433B681A603B69013327
:101320003B613A697B699A42E2D3FA7A7B69D31AC4
:101330005A1E3B68C3F804210023FB6017E07A685B
:10134000FB6913441846FFF75AFF03467B72FB699B
:101350000233FB617B7ABA691344BB613A68FB686C
:10136000134404337A7A1A70FB680133FB603B68DC
:10137000D3F80431FA689A42E1D37A68FB691344DE
:101380001846FFF73CFF0346BB72BB69DB43DBB289
:10139000BB61BB7ABA699A4202D06FF0020300E0E7
:1013A000002318462037BD4680BD00BF80B584B0FD
:1013B00000AF786039600023FB607B68002B02D0AF
:1013C0003B68002B02D14FF0FF332AE007F10B03FB
:1013D0000121184600F052FE0346002B1DD1FB7A76
:1013E0000D2B1CD0FB7A0A2B06D1FB687A681344BC
:1013F00000221A70FB6814E03B685A1EFB689A4290
:1014000002D86FF001030CE0FB685A1CFA601A4620
:101410007B681344FA7A1A70D8E700BFD6E700BF9A
:10142000D4E718461037BD4680BD000090B583B0A4
:1014300000AF7860064B1B681C697868FFF7ACFC4E
:10144000034619467868A04700BF0C37BD4690BDDB
:101450000480FF1F80B586B000AF786007237B61F2
:1014600010E07B6803F00F030D4AD15C07F108021E
:101470007B6913440A461A707B681B097B607B6991
:10148000013B7B617B69002BEBDA00233B7407F1A6
:1014900008031846FFF7CAFF00BF1837BD4680BDD6
:1014A000802E000080B483B000AF786002E07B68DB
:1014B000013B7B607B68002BF9D100BF00BF0C377C
:1014C000BD4680BC704780B500AF01216F2000F0A1
:1014D000D7F902214C2000F09DF900BF80BD00002B
:1014E00080B500AF0C4B1B685B68002098470A4B27
:1014F0001B68DB684FF4E13101209847064B1B68FD
:10150000DB68012104209847034B1B68DB6801213D
:101510000520984700BF80BD0480FF1F80B5ADF552
:10152000087D00AF024607F50873A3F219231A706D
:1015300007F50873A3F219231B7883F00103DBB2CC
:10154000002B06D05B48FFF771FF5B48FFF76EFF8B
:1015500016E05A48FFF76AFF5948FFF767FF4FF454
:101560002040FFF7F6FC0346002B03D05548FFF759
:101570005DFF9AE05448FFF759FF4F48FFF756FFC9
:1015800007F58C734FF480711846FFF70FFFC7F80B
:101590001C02D7F81C32002B03DA4C48FFF746FF39
:1015A00083E0D7F81C32002B5ED007F10C0207F560
:1015B0008C7311461846FFF741FEC7F81802D7F89A
:1015C0001832022B52D0D7F81832012B50D0D7F84E
:1015D0001832002B15DAD7F8183213F1030F03D1A4
:1015E0003B48FFF723FF60E0D7F81832B3F1FF3F25
:1015F00003D13848FFF71AFF57E03748FFF716FFC7
:1016000053E007F50873A3F505731B68B3F5204F86
:101610000ED307F50873A3F505731A6807F5087369
:10162000A3F50573D3F804311344B3F5002F03D9A0
:101630002A48FFF7FBFE1AE007F50873A3F50573C8
:10164000186807F50873A3F50573D3F8042107F1AB
:101650000C0304331946FFF755FD0346002B8FD0CA
:101660001F48FFF7E3FE20E000BF89E700BF87E7E0
:1016700000BF1C48FFF7DAFE4FF42040FFF740FCA4
:101680000346012B0ED11848FFF7D0FE6F2000F063
:1016900065F91648FFF7CAFE0748FFF7C7FE00F0D6
:1016A0000FFDFEE71248FFF7C1FE07F50877BD46BC
:1016B00080BD00BFB42B0000D02B00000C2C00001C
:1016C000342C0000582C0000682C0000882C0000EE
:1016D000A02C0000B42C0000C82C0000DC2C000062
:1016E000EC2C0000FC2C00000C2D0000182D00003C
:1016F000382D000080B500AF6F2000F01FF90248C0
:10170000FFF7D0FEF8E700BF400D030080B584B0BE
:1017100000AFFFF7D8FEFFF7E3FE3148FFF786FE84
:101720004FF420431B68FB604AF204031B68BB6054
:101730002C48FFF77BFE0020FFF78CFE2A48FFF7BE
:1017400075FE4FF42040FFF785FE2848FFF76EFE38
:10175000F868FFF77FFE2648FFF768FEB868FFF7D6
:1017600079FE2448FFF762FE4C2000F017F97860FC
:101770002148FFF75BFE7B68012B03D11F48FFF771
:1017800055FE02E01E48FFF751FE1A48FFF74EFED5
:101790007B68012B06D11B48FFF748FE0120FFF7AD
:1017A000BDFEFEE74FF42040FFF7AAFB0346002BE7
:1017B00009D01548FFF73AFE1448FFF737FE4FF4FB
:1017C0002040FFF70DFB1248FFF730FE0020FFF727
:1017D000A5FEFFF78FFF002318461037BD4680BDDA
:1017E000582D0000982D0000AC2D0000C42D0000E5
:1017F000E02D0000F82D0000FC2D0000082E000058
:101800000C2E0000102E0000302E0000D02B000007
:10181000542E000080B584B000AF78600B46FB709A
:10182000164B1B681B680021786898470346FB73BA
:1018300097F90F30002B07D1104B1B689B680021D4
:10184000786898470346FB7397F90F30002B08D14F
:101850000A4B1B68DB68FA7811467868984703469C
:10186000FB7397F90F30002B01D1002301E04FF0FB
:10187000FF3318461037BD4680BD00BF0880FF1FEC
:1018800080B584B000AF78600B46FB70154B1B68C9
:101890001B680021786898470346FB7397F90F305F
:1018A000002B07D10F4B1B689B6801217868984774
:1018B0000346FB7397F90F30002B06D1094B1B68C9
:1018C0001B69FA7811467868984797F90F30002B12
:1018D00001D1002301E04FF0FF3318461037BD4619
:1018E00080BD00BF0880FF1F80B586B000AFF860E4
:1018F0000B467A60FB72104B1B681B687968F868AE
:1019000098470346FB7597F91730002B08D10A4B0F
:101910001B685B68FA7A1146F86898470346FB75BE
:1019200097F91730002B01D1002301E04FF0FF336E
:1019300018461837BD4680BD0880FF1F80B582B0AD
:1019400000AF7860044B1B689B697868984700BFBC
:101950000837BD4680BD00BF0880FF1F80B582B03C
:1019600000AF7860044B1B681B6A7868984700BF1B
:101970000837BD4680BD00BF0880FF1F80B582B01C
:1019800000AF7860044B1B68DB697868984700BF3C
:101990000837BD4680BD00BF0880FF1F80B582B0FC
:1019A00000AF7860044B1B685B6978689847034612
:1019B00018460837BD4680BD0880FF1F80B584B03B
:1019C00000AF1C4BD3F8A030FB601A4AFB68C2F88A
:1019D000A03027E0FB6893FAA3F3B3FA83F3BB606C
:1019E000154ABB68403352F82330002B12D0134AFB
:1019F000BB68134440331B78FB710F4ABB6840330C
:101A000052F82330BA6802F01F0242F04002F9791E
:101A1000104698470122BB6802FA03F3DB43FA68D9
:101A20001340FB60FB68002BD4D100BF00BF103710
:101A3000BD4680BD00B004402C040020AC06002050
:101A400080B582B000AF786000F026F800F070F842
:101A500000F056F8786800F083F800F039F800BF1D
:101A60000837BD4680BD000080B500AF034B034A78
:101A70001B68136000F010F800BF80BD10E000E0AC
:101A800080B400AF034B1B6823F07F431846BD466C
:101A900080BC704710E000E080B400AF0B4B002228
:101AA0001A604FF0E0234FF00072C3F8042D074B8B
:101AB0001B6823F00103002B01D1002301E04FF04C
:101AC000FF331846BD4680BC704700BF10E000E001
:101AD00080B400AF094B1B68084A43F00103136050
:101AE000064B1B6803F00103002B01D0002301E02B
:101AF0004FF0FF331846BD4680BC704710E000E051
:101B000080B400AF094B1B68084A43F0020313601E
:101B1000064B1B6803F00203002B01D0002301E0F9
:101B20004FF0FF331846BD4680BC704710E000E020
:101B300080B400AF094B1B68084A43F004031360EC
:101B4000064B1B6803F00403002B01D0002301E0C7
:101B50004FF0FF331846BD4680BC704710E000E0F0
:101B6000B0B584B000AF78607868FFF767F81AA363
:101B7000D3E90023FEF78CFD02460B4614461D46B2
:101B8000174B1B681846FFF759F802460B462046CC
:101B90002946FEF77DFD02460B46104619464FF0DA
:101BA0000002104BFEF7C0FE02460B4610461946D7
:101BB000FFF7C8F80346FB600B4AFB6853600A4B0B
:101BC0005B68FA689A4201D1002301E04FF0FF33CD
:101BD00018461037BD46B0BDFCA9F1D24D62503F4A
:101BE0005080FF1F0000F03F10E000E080B485B09F
:101BF00000AF0346FB710E4B1B889BB201339BB2B7
:101C0000C3F30903FB810B4B1B889BB2FA899A42F1
:101C100009D0074B1B889BB21946074AFB795354DE
:101C2000034AFB89138000BF1437BD4680BC704750
:101C300020040020220400202000002080B483B073
:101C400000AF7860114B1B889AB2114B1B889BB276
:101C50009A4201D1002313E00C4B1B889BB21A4619
:101C60000C4B9B5CDAB27B681A70084B1B889BB2EA
:101C700001339BB2C3F309039AB2044B1A800123C8
:101C800018460C37BD4680BC704700BF22040020B8
:101C9000200400202000002080B485B000AF03465F
:101CA000FB710023FB73FB79022B08D0022B03DCB2
:101CB000002B06D0012B06D0FC23FB7304E000BFF1
:101CC00002E000BF00E000BF97F90F30184614375C
:101CD000BD4680BC7047000080B483B000AF786020
:101CE0003A4A7B6813603A4BD3F8003303F00103A0
:101CF000002B0FD1364BD3F80033354A43F00103A4
:101D0000C2F8003300BF324BD3F8003303F08073C6
:101D1000002BF8D02E4BD3F8043323F4E0632C4A85
:101D200043F48073C2F804332A4BD3F82C31294A88
:101D300043F08043C2F82C31264BD3F8AC31254A0E
:101D400023F08043C2F8AC31224BD3F8AC3123F0FE
:101D50008E43204A43F08643C2F8AC311E4B9B6849
:101D60001D4A43F0020393601B4B9B681A4A23F001
:101D700002039360194B9B6923F4E063174A43F411
:101D800000739361154BDB6923F4E063134A43F45A
:101D90000073D361114BDB6923F4E8630F4A43F40A
:101DA0001073D3610E4B0222C3F884210C4B022224
:101DB0005A600C4B00221A800B4B00221A80002321
:101DC00018460C37BD4680BC704700BF1C00002081
:101DD000004006400050064000B0064000B00440FD
:101DE00000E100E0200400202204002080B400AFC5
:101DF0000E4B00221A600E4BD3F8AC310C4A23F084
:101E00008043C2F8AC310B4B0222C3F884200A4B4A
:101E10009B68094A43F002039360074B4FF440422A
:101E20009A6200231846BD4680BC70471C00002003
:101E30000050064000E100E000B0064080B485B0EC
:101E400000AF786039600023FB737B68DBB2BB6056
:101E5000BB68042B11D13B68002B06D0644B9B69F7
:101E6000634A43F40023936105E0614B9B69604A38
:101E700023F4002393610023B4E0BB68052B1DD13C
:101E80003B68002B0CD05A4B9B69594A43F4802382
:101E90009361574B9B69564A43F4001393610BE0DF
:101EA000534B9B69524A23F400139361504B9B6937
:101EB0004F4A23F480239361002393E04C4B9B69AA
:101EC0004B4A23F440239361BB68012B22D1484B3A
:101ED0001A694749474B13400B613B68B3F5165FDE
:101EE00008D1434B1B69424A43F0706343F49C732F
:101EF000136112E03B68B3F5E13F08D13C4B1B692D
:101F00003B4A43F0706343F01A03136105E06FF03E
:101F1000010367E04FF0FF3364E07B6803F4405354
:101F2000B3F5005F1CD0B3F5005F26D8002B03D0BB
:101F3000B3F5805F07D020E02D4B9B692C4A23F03E
:101F4000020393611CE02A4B9B69294A43F0020378
:101F50009361274B9B69264A23F0010393610FE0AD
:101F6000234B9B69224A43F002039361204B9B69F8
:101F70001F4A43F00103936102E06FF0030331E075
:101F80007B6803F4E063002B12D1194B9B69184A5C
:101F900023F400639361164B9B69154A23F01003E9
:101FA000936100BF7B6803F44043002B07D002E03D
:101FB0006FF0020316E0B3F5804F07D00DE00C4B35
:101FC0001B690B4A23F40053136109E0084B1B699A
:101FD000074A43F40053136102E06FF0040301E089
:101FE00097F90F3018461437BD4680BC704700BFC4
:101FF00000B0064000E0FDE080B485B000AF78603E
:1020000039607B68002B02D03B68002B02D16FF057
:10201000040329E07B68FB60164B00221A60164B14
:102020009B69154A43F40023936110E000BF124BF3
:102030005B6903F40003002BF9D00E4B1B685A1C9C
:102040000C490A60FA6813441A780B4BDA61094BA1
:102050001B683A689A42E9D800BF074B5B6903F4F2
:102060008003002BF9D0002318461437BD4680BCEE
:10207000704700BF2404002000B0064080B584B043
:1020800000AF786039607B68002B02D03B68012B81
:1020900002D06FF004030EE007F10F031846FFF7BC
:1020A000CDFD0346002B02D16FF0010303E0FA7B64
:1020B0007B681A70002318461037BD4680BD0000AB
:1020C00080B400AF00BF054B5B6903F48003002BB5
:1020D000F9D000BF00BFBD4680BC704700B00640CD
:1020E00080B582B000AF0F4B5B697B607B6803F407
:1020F0000013002B06D00B4BDB69FB70FB781846F6
:10210000FFF774FD7B6803F47023002B05D0054BAB
:102110005B69044A43F47023536100BF0837BD462E
:1021200080BD00BF00B0064080B487B000AF7860CB
:1021300039607B685B093B617B6803F01F03FB60D0
:102140000023FB753B69042B02D8FB681F2B01D9C8
:102150000123FB7519493B695A01FB6813443A682E
:1021600041F82320164A17493B6951F8233052F8A9
:102170002320134913483B6950F8233042F0804232
:1021800041F82320104A3B6952F82330FA6853F88B
:1021900022200D493B6951F8233042F48071FA68DE
:1021A00043F82210FB7D002B02D04FF0FF3300E0FC
:1021B000002318461C37BD4680BC70472C04002005
:1021C00000500640BC2E0000942E000080B487B062
:1021D00000AF78600B46FB707B685B093B617B68F6
:1021E00003F01F03FB600023FB753B69042B02D83F
:1021F000FB681F2B01D90123FB75FB78002B02D054
:10220000012B12D022E0184A3B6952F823305A6958
:102210000121FB6801FA03F3DB43184612493B69CD
:1022200051F8233002405A6112E00F4A3B6952F8DC
:1022300023305A690121FB6801FA03F318460A4961
:102240003B6951F8233002435A6101E00123FB75D9
:10225000FB7D002B02D04FF0FF3300E00023184637
:102260001C37BD4680BC7047A82E000080B487B0E4
:1022700000AF78600B46FB707B685B093B617B6855
:1022800003F01F03FB600023FB753B69042B02D89E
:10229000FB681F2B01D90123FB75FB78022B38D07B
:1022A000022B57DC002B02D0012B11D052E0304A18
:1022B0003B6952F82330FA6853F822202C493B69D5
:1022C00051F8233022F00201FA6843F8221043E06B
:1022D000274A3B6952F82330FA6853F822202449F0
:1022E0003B6951F8233042F00201FA6843F82210AA
:1022F0001F4A3B6952F82330FA6853F822201C49E0
:102300003B6951F8233042F00101FA6843F822108A
:1023100022E0174A3B6952F82330FA6853F822202A
:1023200013493B6951F8233042F00201FA6843F83F
:1023300022100F4A3B6952F82330FA6853F82220E2
:102340000B493B6951F8233022F00101FA6843F848
:10235000221001E00123FB75FB7D002B02D04FF022
:10236000FF3300E0002318461C37BD4680BC704791
:10237000942E000080B485B000AF786039607B682F
:102380005B09FB607B6803F01F03BB603B68002BAD
:1023900009D10C4AFB6852F823300121BA6801FACE
:1023A00002F29A6008E0074AFB6852F823300121E4
:1023B000BA6801FA02F25A6000BF1437BD4680BC09
:1023C000704700BFA82E000080B485B000AF7860D1
:1023D0007B685B09FB607B6803F01F03BB60074AF7
:1023E000FB6852F823300121BA6801FA02F2DA6080
:1023F00000BF1437BD4680BC704700BFA82E000048
:1024000080B485B000AF78607B685B09FB607B6857
:1024100003F01F03BB60074AFB6852F82330012119
:10242000BA6801FA02F25A6000BF1437BD4680BC98
:10243000704700BFA82E000080B485B000AF786060
:102440007B685B09FB607B6803F01F03BB60074A86
:10245000FB6852F823300121BA6801FA02F29A604F
:1024600000BF1437BD4680BC704700BFA82E0000D7
:1024700080B485B000AF78607B685B09FB607B68E7
:1024800003F01F03BB60074AFB6852F823301A6948
:10249000BB6822FA03F303F0010318461437BD4664
:1024A00080BC7047A82E000080B487B000AF786071
:1024B0000B46FB707B685B093B617B6803F01F0385
:1024C000FB600023FB753B69042B02D8FB681F2BC4
:1024D00001D90123FB75584A3B69134493F9003035
:1024E000DBB203F01F03554953483A69024492F99D
:1024F0000020521152B21046012202FA03F341F8B1
:102500002030FB78002B10D14D4A3B6952F8233024
:10251000FA6853F822204A493B6951F8233022F4E3
:102520007021FA6843F8221079E0FB78012B24D15E
:10253000434A3B6952F823300121FA6801FA02F25A
:10254000C3F8A0203E4A3B6952F82330FA6853F89A
:10255000223023F470223A493B6951F8233042F487
:102560001021FA6843F82210364A3B695B011A448D
:10257000FB68134401221A7051E0FB78022B24D12E
:102580002F4A3B6952F823300121FA6801FA02F21E
:10259000C3F8A0202A4A3B6952F82330FA6853F85E
:1025A000223023F4702226493B6951F8233042F44B
:1025B0002021FA6843F82210224A3B695B011A4441
:1025C000FB68134402221A7029E0FB78032B24D104
:1025D0001B4A3B6952F823300121FA6801FA02F2E2
:1025E000C3F8A020164A3B6952F82330FA6853F822
:1025F000223023F4702212493B6951F8233042F40F
:102600003021FA6843F822100E4A3B695B011A44F4
:10261000FB68134403221A7001E00123FB75FB7D64
:10262000002B02D04FF0FF3300E0002318461C3788
:10263000BD4680BC704700BF2480FF1F00E100E062
:10264000942E0000AC06002080B48FB000AF394B50
:102650003B63394B3B62394B7B61394BFB62394BF6
:10266000FB61394B3B61394BBB62394BFB60394BEA
:102670007B62394BBB61394BBB6009E03B6A1A781E
:102680003B6B1A703B6B01333B633B6A01333B622C
:102690007A693B6A9A42F1D109E0FB691A78FB6AD0
:1026A0001A70FB6A0133FB62FB690133FB613A6913
:1026B000FB699A42F1D105E0BB6A00221A70BB6A3D
:1026C0000133BB62FA68BB6A9A42F5D109E0BB6983
:1026D0001A787B6A1A70BB690133BB617B6A01336C
:1026E0007B62BA68BB699A42F1D10023FB711C4A34
:1026F0001C4B9A4216D000237B630AE0194A7B6B7D
:1027000052F8232016497B6B41F823207B6B013361
:102710007B63154B9B087A6B9A42EFD3134B104A9D
:102720001A6002E0114B0F4A1A6000BF3C37BD46E9
:1027300080BC70470080FF1F242F000094330000EE
:102740007084FF1F943300009433000000000020C9
:102750004C07002000000020943300009433000058
:1027600000000000000000000000000008ED00E094
:1027700080B400AF084B094A5A60074B5B68064BB0
:1027800042F220121A60044B4FF6FF729A6000BFAB
:10279000BD4680BC704700BF0020054020C528D939
:1027A00080B487B000AF00237B610123FB74344BFE
:1027B0001B691B0C03F00F030133FB60304B1B69DB
:1027C0001B0E03F00F03013B052B46D801A252F864
:1027D00023F000BFED270000F32700000B280000C6
:1027E0005B2800005B28000023280000254B7B614C
:1027F00037E0234BD3F8083203F001033B603B681A
:10280000002B2DD01F4B7B612AE01D4BD3F80833E2
:1028100003F003033B601C4A3B6852F823307B61A2
:102820001FE0184B7B61164BD3F808361B0A03F0E8
:1028300007030133BB60124BD3F808361B0C03F0BF
:102840001F0310337B607B697A6803FB02F2BB686D
:102850005B00B2FBF3F37B6103E00023FB7400E059
:1028600000BFFB7C002B05D07A69FB68B2FBF3F359
:10287000064A136000BF1C37BD4680BC704700BFCE
:102880000040064000127A00D42E00005080FF1F46
:1028900080B483B000AF4FF0E023D3F80C3D7B60F1
:1028A0007B689BB27B607B6843F0BF6343F400337B
:1028B0007B607B6843F004037B604FF0E0227B6821
:1028C000C2F80C3D00BF0C37BD4680BC704700000D
:1028D00010402DE90010A0E30040A0E1380000EB1B
:1028E00018309FE5000093E53C3090E5000053E38D
:1028F0000FE0A01113FF2F110400A0E1AB0000EBCB
:10290000D82E000070402DE90060A0E360509FE5E4
:1029100060409FE5054044E04441A0E1040056E1E9
:102920000900001A6D0100EB0060A0E348509FE52C
:1029300048409FE5054044E04441A0E1040056E1E1
:102940000600001A7040BDE81EFF2FE1043095E438
:102950000FE0A0E113FF2FE1016086E2EEFFFFEA46
:10296000043095E40FE0A0E113FF2FE1016086E25F
:10297000F1FFFFEA182F0000182F0000182F0000A9
:10298000202F00000030A0E1022080E0020053E18F
:102990001EFF2F010110C3E4FBFFFFEA18309FE583
:1029A000000053E31EFF2F0110402DE90C009FE5AE
:1029B000550000EB1040BDE81EFF2FE100000000B5
:1029C000C82A0000F74F2DE90070A0E10160A0E1E6
:1029D00000A0A0E3E8309FE5003093E504308DE5EA
:1029E00004309DE5485193E5000055E30600000AD8
:1029F0000190A0E3044095E5018044E2014084E2B7
:102A0000044185E0000058E3020000AA0CD08DE2EA
:102A1000F04FBDE81EFF2FE1000056E30500000A5D
:102A2000002194E5060052E10200000A018048E21C
:102A3000044044E2F2FFFFEA041095E5002094E52B
:102A4000011041E2080051E10480850500A08415D1
:102A5000000052E3F4FFFF0A881195E5193811E0F0
:102A600004B095E519C8A0E10900001A0FE0A0E143
:102A700012FF2FE1041095E504309DE50B0051E1B4
:102A8000482193E5D5FFFF1A020055E1E6FFFF0A52
:102A9000D2FFFFEA8C0195E500001CE1801094E56F
:102AA0000300001A0700A0E10FE0A0E112FF2FE1F0
:102AB000EFFFFFEA0100A0E10FE0A0E112FF2FE12C
:102AC000EBFFFFEAD82E000070402DE930509FE563
:102AD00030409FE5054044E04441A0E1000054E35C
:102AE0000200001A030100EB7040BDE81EFF2FE159
:102AF000014044E2043195E70FE0A0E113FF2FE12C
:102B0000F5FFFFEA202F0000242F00000030A0E393
:102B100010402DE90010A0E10320A0E10300A0E196
:102B2000010000EB1040BDE81EFF2FE178C09FE5DB
:102B300070402DE900E09CE548C19EE500005CE3A3
:102B400053CF8E0248C18E0504E09CE51F005EE372
:102B50000000E0C3120000CA000050E30B00000AAE
:102B60000150A0E30E418CE0882084E588219CE59B
:102B7000152E82E188218CE5083184E5020050E3BE
:102B80008C319C05156EA0E1063083018C318C05DB
:102B90000000A0E301308EE202E08EE204308CE51A
:102BA0000E118CE77040BDE81EFF2FE1D82E00000B
:102BB000FEFFFFEA526561647920746F20726563DD
:102BC00065697665206669726D776172650D0A00C8
:102BD0002D2D2D2D2D2D2D2D2D2D2D2D2D2D2D2D25
:102BE0002D2D2D2D2D2D2D2D2D2D2D2D2D2D2D2D15
:102BF0002D2D2D2D2D2D2D2D2D2D2D2D2D2D2D2D05
:102C00002D2D2D2D2D2D2D2D0D0A000052656164C9
:102C10007920746F206572617365204170706C69F2
:102C2000636174696F6E2073656374696F6E0D0AFA
:102C30000000000045726173696E67204170706C1E
:102C400069636174696F6E2073656374696F6E2E5A
:102C50002E2E0D0A0000000045726173652065721A
:102C6000726F720D0A000000457261736520646F17
:102C70006E653A20476F20746F204C697374656EDF
:102C8000206D6F64650D0A005541525420726563D2
:102C900065697665206572726F722E0D0A000000FC
:102CA000436865636B73756D206572726F722E0D6C
:102CB0000A0000004E6F74205352454320666F7225
:102CC0006D61742E0D0A0000556E737570706F7211
:102CD00074656420747970652E000000416464722C
:102CE000657373206572726F720D0A00466C6173B2
:102CF00068206572726F720D0A000000526563658C
:102D000069766520646F6E652E0D0A004150505F34
:102D100056414C49440D0A00507265737320524568
:102D200053455420425554544F4E20746F207374B1
:102D30006172740D0A0000004552524F523A204110
:102D400070706C69636174696F6E20696E76616C16
:102D500069640D0A000000000D0A2D2D2D2D2D2D6A
:102D60002D2D2D2D2D2D2D2D2D2D2D2D205333326F
:102D70004B31343420424F4F544C4F414445522044
:102D80002D2D2D2D2D2D2D2D2D2D2D2D2D2D2D2D73
:102D90002D2D0D0A00000000426F6F746C6F61648E
:102DA00065722066726F6D20307800000D0A4170E8
:102DB000706C69636174696F6E2066726F6D20302C
:102DC000780000000D0A4D61696E20537461636BD9
:102DD00020706F696E746572203D203078000000AD
:102DE0000D0A52657365742068616E646C657220AB
:102DF0003D203078000000000D0A0000426F6F7423
:102E00004D6F6465203D20004F4646004F4E000048
:102E1000427574746F6E20707265737365643A20C6
:102E2000676F20746F20426F6F740D0A00000000FE
:102E30004170702076616C69643A206A756D70200B
:102E4000696E746F206170706C69636174696F6E14
:102E50000D0A00004E6F2076616C6964206170700D
:102E60006C69636174696F6E3A20676F746F204C90
:102E7000697374656E206D6F64650D0A0000000053
:102E800030313233343536373839414243444546A0
:102E9000000000000090044000A0044000B0044086
:102EA00000C0044000D0044000F00F4040F00F404C
:102EB00080F00F40C0F00F4000F10F4049000000CB
:102EC0004A0000004B0000004C0000004D000000D4
:102ED00008ED00E0006CDC025880FF1F00000000DD
:102EE0000DC0A0E1F8DF2DE904B04CE228D04BE2A0
:102EF000F06F9DE81EFF2FE10DC0A0E1F8DF2DE986
:102F000004B04CE228D04BE2F06F9DE81EFF2FE1A9
:082F1000DCD5FF7F0100000089
:082F18009C290000B804000030
:042F20007404000035
:102F2400000000000C80FF1F2C80FF1F991C000074
:102F3400D91C0000ED1D00003D1E0000F91F00001B
:102F44007D2000003B3C3D3E3F0000002921000065
:102F5400A9240000CD2100006D220000752300008B
:102F640071240000C923000001240000392400005A
:102F7400006CDC025880FF1F000000004483FF1F28
:102F8400A883FF1F0C84FF1F000000000000000046
:102F9400000000000000000000000000000000002D
:102FA400000000000000000000000000000000001D
:102FB400000000000000000000000000000000000D
:102FC40000000000000000000000000000000000FD
:102FD40000000000000000000000000000000000ED
:102FE40000000000000000000000000000000000DD
:102FF40000000000000000000000000000000000CD
:1030040000000000000000000000000000000000BC
:1030140000000000000000000000000000000000AC
:1030240001000000000000000E33CDAB34126DE649
:10303400ECDE05000B0000000000000000000000B2
:10304400000000000000000000000000000000007C
:10305400000000000000000000000000000000006C
:10306400000000000000000000000000000000005C
:10307400000000000000000000000000000000004C
:0400000300000625CE
:00000001FF
